{
    "_format": "hh-sol-artifact-1",
    "contractName": "StoreMerkleRoot",
    "sourceName": "contracts/MerkleRootHash.sol",
    "abi": [
        {
            "inputs": [],
            "name": "getRootCount",
            "outputs": [
                {
                    "internalType": "uint256",
                    "name": "",
                    "type": "uint256"
                }
            ],
            "stateMutability": "view",
            "type": "function"
        },
        {
            "inputs": [
                {
                    "internalType": "bytes32",
                    "name": "_rootHash",
                    "type": "bytes32"
                }
            ],
            "name": "hasRoot",
            "outputs": [
                {
                    "internalType": "bool",
                    "name": "",
                    "type": "bool"
                }
            ],
            "stateMutability": "view",
            "type": "function"
        },
        {
            "inputs": [
                {
                    "internalType": "bytes32",
                    "name": "_rootHash",
                    "type": "bytes32"
                }
            ],
            "name": "storeRoot",
            "outputs": [],
            "stateMutability": "nonpayable",
            "type": "function"
        },
        {
            "inputs": [
                {
                    "internalType": "bytes32[]",
                    "name": "_rootHashes",
                    "type": "bytes32[]"
                }
            ],
            "name": "storeRoots",
            "outputs": [],
            "stateMutability": "nonpayable",
            "type": "function"
        }
    ],
    "bytecode": "0x6080604052348015600f57600080fd5b506105158061001f6000396000f3fe608060405234801561001057600080fd5b506004361061004c5760003560e01c8063911b8b4e14610051578063940149be1461006d578063f2c06f581461009d578063fa12779c146100b9575b600080fd5b61006b600480360381019061006691906102ea565b6100d7565b005b610087600480360381019061008291906102ea565b61018f565b6040516100949190610332565b60405180910390f35b6100b760048036038101906100b291906103b2565b6101b9565b005b6100c161029e565b6040516100ce9190610418565b60405180910390f35b6001600082815260200190815260200160002060009054906101000a900460ff1615610138576040517f08c379a000000000000000000000000000000000000000000000000000000000815260040161012f90610490565b60405180910390fd5b6000819080600181540180825580915050600190039060005260206000200160009091909190915055600180600083815260200190815260200160002060006101000a81548160ff02191690831515021790555050565b60006001600083815260200190815260200160002060009054906101000a900460ff169050919050565b60005b8282905081101561029957600160008484848181106101de576101dd6104b0565b5b90506020020135815260200190815260200160002060009054906101000a900460ff1661028c57600083838381811061021a576102196104b0565b5b905060200201359080600181540180825580915050600190039060005260206000200160009091909190915055600180600085858581811061025f5761025e6104b0565b5b90506020020135815260200190815260200160002060006101000a81548160ff0219169083151502179055505b80806001019150506101bc565b505050565b60008080549050905090565b600080fd5b600080fd5b6000819050919050565b6102c7816102b4565b81146102d257600080fd5b50565b6000813590506102e4816102be565b92915050565b600060208284031215610300576102ff6102aa565b5b600061030e848285016102d5565b91505092915050565b60008115159050919050565b61032c81610317565b82525050565b60006020820190506103476000830184610323565b92915050565b600080fd5b600080fd5b600080fd5b60008083601f8401126103725761037161034d565b5b8235905067ffffffffffffffff81111561038f5761038e610352565b5b6020830191508360208202830111156103ab576103aa610357565b5b9250929050565b600080602083850312156103c9576103c86102aa565b5b600083013567ffffffffffffffff8111156103e7576103e66102af565b5b6103f38582860161035c565b92509250509250929050565b6000819050919050565b610412816103ff565b82525050565b600060208201905061042d6000830184610409565b92915050565b600082825260208201905092915050565b7f526f6f7420616c72656164792065786973747300000000000000000000000000600082015250565b600061047a601383610433565b915061048582610444565b602082019050919050565b600060208201905081810360008301526104a98161046d565b9050919050565b7f4e487b7100000000000000000000000000000000000000000000000000000000600052603260045260246000fdfea2646970667358221220aca11727882b0d321da3ca309a2347485ef70b529a247abbe15a8a5ff25b6bb164736f6c634300081c0033",
    "linkReferences": {},
    "deployedLinkReferences": {}
}